:100000000C949A000C94160A0C940C0A0C94B700E9
:100010000C94B7000C94B7000C94B7000C94B70084
:100020000C9486240C94B7000C94B7000C94B70081
:100030000C94B7000C94B7000C94B7000C94B70064
:100040000C94B7000C94B7000C94B7000C94B70054
:100050000C94B7000C94B7000C94B7000C94B70044
:100060000C94B7000C94B7000C94B7000C94B70034
:100070000C94B7000C94B7000C94B7000C94B70024
:100080000C94B7000C94B7000C94B7000C94B70014
:100090000C94B7000C94B7000C94B7000C94B70004
:1000A0000C94B7000C94B7000C94B7000C94B700F4
:1000B0000C94B7000C94B7000C94B7000C94B700E4
:1000C0000C94B7000C94B7000C94B700D204A104B0
:1000D000A0049F049E04A104A0049F049E04A10404
:1000E000A0049F049E04A104A0049F049E04D204C3
:1000F000BF04BD04BB04B904BF04BD04BB04B90400
:10010000BF04BD04BB04B904BF04BD04BB04B904EF
:10011000320A360A3A0A3E0A420A460A4A0A4E0A8F
:10012000520A560A273624362A362D3630363636C7
:100130003936333611241FBECFEFD8E0DEBFCDBF36
:1001400012E0A0E0B1E0E2EEF2E702C005900D920D
:10015000AA33B107D9F723E0AAE3B2E001C01D92A8
:10016000AA3FB207E1F70E946D350C946F390C94E9
:1001700000008091DD03811108C04798459843989D
:10018000419881E08093DD030895479A459A439A08
:10019000419A1092DD0308952FEF33EC49E021508E
:1001A00030404040E1F700C0000090E09817E1F0D7
:1001B00046984498429840982FE73AE146E021500B
:1001C00030404040E1F700C00000469A449A429A0D
:1001D000409A2FEF34E34CE0215030404040E1F7AB
:1001E00000C000009F5FE2CF08950D9A0C9A699AB3
:1001F000509A159A149A7198589808959091E70317
:10020000913099F490E0891781F0169AE3E5F1E0D6
:100210003197F1F700C000001698E3E5F1E031975F
:10022000F1F700C000009F5FEECF08951198739A18
:10023000729A5F9A99B189B121E096FB992790F95A
:10024000921305C085FB882780F9821701F14E992A
:100250000EC088E00E94FE004E9907C08FE39CE923
:100260000197F1F700C00000F7CF82E011C04D996F
:100270000EC088E00E94FE004D9907C0EFE3FCE944
:100280003197F1F700C00000F7CF8BE001C080E0AC
:10029000119A7398EFECF7E03197F1F700C0000086
:1002A00099B129B159B141E096FB992790F9392FBD
:1002B000342725FB992790F99427932B29F454FB95
:1002C000992790F9941779F14E990EC088E00E9411
:1002D000FE004E9907C08FE39CE90197F1F700C03B
:1002E0000000F7CF84E01FC04D990EC088E00E9447
:1002F000FE004D9907C0EFE3FCE93197F1F700C02C
:100300000000F7CF85E00FC04C990DC088E00E9437
:10031000FE004C9907C08FE39CE90197F1F700C0FC
:100320000000F7CF83E0739A7298EFECF7E0319713
:10033000F1F700C0000099B129B159B141E096FB35
:10034000992790F9392F342725FB992790F994277D
:10035000932B29F454FB992790F9941779F14E992E
:100360000EC088E00E94FE004E9907C08FE39CE912
:100370000197F1F700C00000F7CF88E01FC04D994A
:100380000EC088E00E94FE004D9907C0EFE3FCE933
:100390003197F1F700C00000F7CF86E00FC04C990D
:1003A0000DC088E00E94FE004C9907C08FE39CE9D5
:1003B0000197F1F700C00000F7CF87E0729A5F98CD
:1003C000EFECF7E03197F1F700C0000099B129B1E7
:1003D00059B141E096FB992790F9392F342725FB35
:1003E000992790F99427932B29F454FB992790F996
:1003F000941781F14E990EC088E00E94FE004E993C
:1004000007C08FE39CE90197F1F700C00000F7CF28
:100410008AE01FC04D990EC088E00E94FE004D99F1
:1004200007C0EFE3FCE93197F1F700C00000F7CF18
:1004300081E00FC04C990DC088E00E94FE004C99ED
:1004400007C08FE39CE90197F1F700C00000F7CFE8
:1004500089E05F9A08950E941601882381F0E09157
:100460004C029BE0E99FF0011124E35FFD4FE80F90
:10047000F11D3197808191E090935003089510927F
:10048000500380E008958770806880937C0085E841
:1004900080937A0080917A00806480937A008091C2
:1004A0007A0084FFFCCF80917A00806480937A0088
:1004B00080917A0084FFFCCF209178003091790000
:1004C00090917A009F7790937A00C9010895159AC8
:1004D00014988FE19EE40197F1F700C00000719A33
:1004E00058988FE19EE40197F1F700C0000008954D
:1004F00089E1159A1498EFECF7E03197F1F700C015
:100500000000719A5898EFECF7E03197F1F700C0CE
:100510000000159A149AEFECF7E03197F1F700C05C
:10052000000071985898EFECF7E03197F1F700C0B0
:1005300000008150F1F689E1159A1498EFECF7E08C
:100540003197F1F700C00000719A5898EFECF7E08E
:100550003197F1F700C00000159A149AEFECF7E01C
:100560003197F1F700C0000071985898EFE9FFE06B
:100570003197F1F700C000008150F1F6089589E14C
:100580001598149AEFECF7E03197F1F700C00000EE
:100590007198589AEFECF7E03197F1F700C000003E
:1005A000159A149AEFECF7E03197F1F700C00000CC
:1005B00071985898EFECF7E03197F1F700C0000020
:1005C0008150F1F689E11598149AEFECF7E0319734
:1005D000F1F700C000007198589AEFECF7E03197FE
:1005E000F1F700C00000159A149AEFECF7E031978C
:1005F000F1F700C0000071985898EFE9FFE03197DB
:10060000F1F700C000008150F1F608951598149A92
:100610008FE19EE40197F1F700C000007198589AAD
:100620008FE19EE40197F1F700C000000895159A4C
:10063000149A8FE19EE40197F1F700C000007198D1
:1006400058988FE19EE40197F1F700C000000895EB
:100650001F93CF93DF93182F8EE580937C0087E85C
:1006600080937A0080917A00806480937A001130C0
:1006700041F40E9406038FEC97E00197F1F700C068
:100680000000479845984398419846984498429866
:10069000409880917A0084FFFCCF809178009091FF
:1006A000790080917A00806480937A0080917A004A
:1006B00084FFFCCFC0917800D0917900113011F403
:1006C0000E941703469A449A429A409A479A459A3A
:1006D000439A419AC33891E0D90710F4479804C06F
:1006E000C13981E0D80710F445980AC0C03A91E0BA
:1006F000D90730F0C03B81E0D80720F442984098F9
:10070000439805C04098C03C91E0D90708F441984F
:10071000113041F40E9467028FEC97E00197F1F7E6
:1007200000C00000CE01DF91CF911F9108955F922C
:100730006F927F928F929F92AF92BF92CF92DF92F1
:10074000EF92FF920F931F93CF93DF93CDB7DEB756
:1007500064970FB6F894DEBF0FBECDBF582E662E3D
:1007600021E0821303C00E94060302C00E946702B8
:100770008FEF90E7E2E081509040E040E1F700C069
:1007800000008AE191E00E944F39F1E06F1205C04C
:10079000813019F480E00E9428038E010F5F1F4F03
:1007A0005E0125E1A20EB11CF80111921192AE1664
:1007B000BF06D9F792E3792EC12CD12C76018AE0BD
:1007C000982EFE01739692918291938382830E17E5
:1007D0001F07C9F780E00E9443029A8389838FEC48
:1007E00097E00197F1F700C000009A949110E9CFCB
:1007F0004801F401619171914F0180E090E00E9405
:100800002C389B01AC01C701B6010E9449376B012E
:100810007C01A814B90469F720E030E040E251E41B
:100820000E94BA376B017C018FE19EE40197F1F7DA
:1008300000C0000020E030E048E452E4C701B60107
:100840000E94B53787FF03C07A947110B8CF91E04A
:10085000591203C00E94BF0202C00E9478020E9487
:10086000170388EE93E09093F4038093F303E1E0A1
:100870006E1208C0469A449A429A409A479A459AFC
:10088000439A419A64960FB6F894DEBF0FBECDBF6F
:10089000DF91CF911F910F91FF90EF90DF90CF905C
:1008A000BF90AF909F908F907F906F905F900895D2
:1008B000811102C00C94B90090E047984598439884
:1008C00041982FEF30E742E0215030404040E1F7BF
:1008D00000C00000479A459A439A419A2FEF30E7AB
:1008E00042E0215030404040E1F700C000009F5FEF
:1008F0008913E3CF089581110C94CC004698449855
:10090000429840982FEF84E39CE021508040904033
:10091000E1F700C00000469A449A429A409A08952E
:10092000613019F06230E1F0089590E08131910575
:1009300048F4FC01EA59FF4F0C94FE38479845985B
:10094000439841982FE788E391E021508040904000
:10095000E1F700C00000479A459A439A419A0895EA
:1009600090E08131910568F4FC01E958FF4F0C9447
:10097000FE3847984698459844984398429841983D
:1009800040982FE788E391E0215080409040E1F7C4
:1009900000C00000479A459A439A419A469A449A61
:1009A000429A409A0895823051F018F4813041F013
:1009B00008C0833019F0843021F446984498429856
:1009C00040982FEF89E698E1215080409040E1F770
:1009D00000C00000469A449A429A409A0895809135
:1009E0006C03813009F05CC080913F038F5F80937E
:1009F0003F0390915A03891730F480915A039091E4
:100A00003F03891B50C0109254039091540380916E
:100A1000E9038917E8F046984498429840988FE493
:100A200093EC0197F1F700C00000469A449A429A6D
:100A3000409A9FEB2DEC87E1915020408040E1F7F8
:100A400000C00000809154038F5F80935403DDCF7A
:100A50001092540380915403843078F64798459857
:100A6000439841989FEF20E782E0915020408040DA
:100A7000E1F700C00000479A459A439A419A9FEFD8
:100A800020E782E0915020408040E1F700C0000064
:100A900010923F03809154038F5F80935403DACF09
:100AA00010923F0384E00C94D304982F92959F708A
:100AB0008F702AE0929F800D112408958091FC018F
:100AC000809355036091FD01609378039AE0899FBC
:100AD000600D1124609372038091FE018093EA03FC
:100AE0008091FF018093EB03809100028093EC03DF
:100AF000809101028093ED0370E066517C4F44E0E9
:100B000050E08CEF91E00E94323921E0892B09F40A
:100B100020E0822F0895259A279A249A689A70983F
:100B20002CB581E090E001C0880F2A95EAF7806536
:100B30008CBD08958EBD0DB407FEFDCF8EB5089512
:100B40000F931F93CF93DF93D62F709A80690E94E3
:100B50009A0509E713E0C0E0CD1751F0F8011082C3
:100B600080E00E949A05F80181938F01CF5FF4CF56
:100B70007098DF91CF911F910F910895F894809113
:100B80003A028130E1F562E083E00E94A005209105
:100B900079032F7780917A0390914F033091450329
:100BA000391748F4381790F0831327C03091530356
:100BB000231718F10BC0931790F4831305C080918D
:100BC00053032817E0F419C03817C8F08917B8F094
:100BD000891313C080917503281788F00EC09313F2
:100BE0000CC04091530330917503431741F08913B2
:100BF00004C0241710F0231710F080E0089581E05E
:100C00000895DF92EF92FF920F931F93CF93DF939C
:100C100066E083E00E94A00510917A031F73D091D3
:100C20007B03DF73C0917D03CF7100917E038091C0
:100C300079038F770E94550580934602812F0E9489
:100C40005505D82E809347028D2F0E945505182FE9
:100C5000809348028C2F0E945505F82E80934902FC
:100C6000802F8F700E945505C82F80934A0285E11E
:100C700091E00E944F39E82E80934B0286E191E08B
:100C80000E944F39D82F8093F20387E191E00E94B0
:100C90004F39082F8093480388E191E00E944F3933
:100CA000982F8093DE038C1730F4C930A1F481E0D3
:100CB000992391F010C0C8130CC00F1560F0F0120A
:100CC00008C0D11740F081E01D1306C0DE1420F0EB
:100CD00002C081E001C080E0DF91CF911F910F91B0
:100CE000FF90EF90DF900895CF92DF92EF92FF9206
:100CF0000F931F93CF93DF9366E083E00E94A005DC
:100D000010917A031F73C0917B03CF73D0917D0341
:100D1000DF7100917E03809179038F770E945505E2
:100D200080934602812F0E945505E82E809347024A
:100D30008C2F0E945505C82F809348028D2F0E944A
:100D40005505F82E80934902802F8F700E9455051B
:100D500080934A0285E191E00E944F39D82E80931A
:100D60004B0286E191E00E944F39D82F8093F20325
:100D700087E191E00E944F39082F8093480387E272
:100D800091E00E944F39C82E8093770388E291E06A
:100D90000E944F39182F8093F10389E291E00E945D
:100DA0004F3980936F03081306C01D1720F0D1132D
:100DB00010C0CD1470F4F81206C01C1720F0C11337
:100DC00008C0EC1430F00F1520F0F0120AC0DC1748
:100DD00010F480E007C081E0CD1304C0ED1410F0E2
:100DE000F8CF81E0DF91CF911F910F91FF90EF90AD
:100DF000DF90CF9008950F931F93CF93DF93D62F5B
:100E0000709A8F7680610E949A0509E713E0C0E02E
:100E1000CD1739F0F80181918F010E949A05CF5FBB
:100E2000F7CF7098DF91CF911F910F9108951F9385
:100E3000CF93DF9300D000D000D0CDB7DEB70E94B3
:100E4000F5000E948B051E821D821C821B821A8265
:100E50001982F89483E58CBD8FEF87B988B90E9A13
:100E6000689A7098409846988FE19EE40197F1F750
:100E700000C0000014E080E10E949A058FE19EE42A
:100E80000197F1F700C000008E818F5F8E838FEF96
:100E90000E949A0580937903813109F41E839E8113
:100EA000933048F31E82813109F08EC28FE19EE4B7
:100EB0000197F1F700C000001D828D81853698F4FE
:100EC0001D818D810E949A05E12FF0E0E858FC4FCA
:100ED00080838FE19EE40197F1F700C000008D81CF
:100EE0008F5F8D83EACF1A8219821D828D818336AE
:100EF00078F4ED8189819A81F0E0E758FC4F2081F8
:100F0000820F911D9A8389838D818F5F8D83EECFB0
:100F100089819A81892B11F41B8202C081E08B8325
:100F200089819A8199279A83898329813A813327F4
:100F30008091DC0390E02817390709F020C28B81EB
:100F4000813009F01CC21C8289E10E949A058FEC55
:100F500097E00197F1F700C00000409A469A9FEF92
:100F600020E782E0915020408040E1F700C000007F
:100F700067E082E00E94FB0667E082E00E94A00535
:100F80008091DB03813009F024C28091800380933B
:100F9000E401809181038093E50180918203809335
:100FA000E601809183038093E70144E050E062E32F
:100FB00070E084EE91E00E9457398091890380931C
:100FC000DE0146E050E066E370E08EED91E00E94C5
:100FD000573980918A038093EE0180918B0380932F
:100FE000EF0180918C038093F00180918D038093B9
:100FF000F10180918E038093F20180918F038093A1
:10100000F30146E050E066E270E08EEE91E00E946F
:101010005739809190038093E801809191038093E8
:10102000E901809192038093EA0180919303809378
:10103000EB01809194038093EC0180919503809360
:10104000ED0146E050E06CE270E088EE91E00E9435
:101050005739809196038093F40180919703809390
:10106000F501809198038093F60180919903809314
:10107000F70180919A038093F80180919B038093FC
:10108000F90180919C038093FA0180919D038093E4
:10109000FB0148E050E06EE170E084EF91E00E94D7
:1010A000573980919E038093080180919F0380931C
:1010B00009018091A00380930A018091A10380938C
:1010C0000B0144E050E06CE370E088E091E00E94A6
:1010D00057398091A203809304018091A3038093E8
:1010E00005018091A403809306018091A50380935C
:1010F000070144E050E060E470E084E091E00E9489
:1011000057396091A60360933A0289E191E00E9409
:1011100061396091A803609345038091A703809390
:1011200053038091AA0380934F038091A903809376
:1011300075038BE191E00E946139609153038CE16A
:1011400091E00E94613960914F038DE191E00E942E
:101150006139609175038EE191E00E94613960917F
:10116000AB0360933C0281E190E00E9461396091A1
:10117000AD0382E190E00E9461396091AC0383E1AC
:1011800090E00E94613962E089E00E94FB06809154
:101190003C028130B9F462E080E00E94A00512E0D8
:1011A0001093790361E081E00E94FB06609179036E
:1011B00082E291E00E9461398AE0809369001DBB60
:1011C000E89A1BC081111EC061E081E00E94A00569
:1011D000809179038D7F8093790361E081E00E94A3
:1011E000FB066091790382E291E00E9461398AE016
:1011F0008093690082E08DBBE8986DB380E291E056
:101200000E9461396091AE036093640388E090E0CE
:101210000E94613980916403823541F58091E40137
:101220008093EA038091E5018093EB038091E601CE
:101230008093EC038091E7018093ED038091EA03B2
:101240009091EB03A091EC03B091ED0380935602D3
:1012500090935702A0935802B093590244E050E093
:101260006CE470E086E592E00E9457398091640357
:10127000813519F08355843020F460E081E00E94CC
:1012800097036091AF036093210389E090E00E948F
:1012900061396091B00360934C0287E090E00E9456
:1012A00061396091B1036093550285E190E00E943D
:1012B00061396091B20360935A038DE090E00E941F
:1012C00061396091B3036093E9038BE291E00E947E
:1012D00061396091B403609366038AE090E00E94F4
:1012E00061396091B5036093E7038BE090E00E9461
:1012F00061396091B6038AE191E00E94613911E0A1
:101300001093790361E081E090E00E9461391093CD
:10131000790361E082E090E00E9461399FEF20E76D
:1013200082E0915020408040E1F700C00000E9E7F2
:10133000F3E08DED93E011928E179F07E1F71AE02D
:1013400088E00E94FE00439845989FEF20E782E0E6
:10135000915020408040E1F700C0000088E00E94EA
:10136000FE00439A459A9FEF20E782E0915020408B
:101370008040E1F700C00000115011F72AC081E061
:101380008C8380E20E949A051AE088E00E94FE00A9
:10139000429844989FEF20E782E09150204080409F
:1013A000E1F700C0000088E00E94FE00429A449AE3
:1013B0009FEF20E782E0915020408040E1F700C09D
:1013C0000000115011F705C081E08C8381E20E947A
:1013D0009A05419A439A459A479A409A429A449A62
:1013E000469A9FEF20E782E0915020408040E1F74D
:1013F00000C0000081E58CBD67E082E00E94A0058E
:1014000078948C8126960FB6F894DEBF0FBECDBFC0
:10141000DF91CF911F9108951F920F920FB60F92F7
:1014200011240F900FBE0F901F9018951F920F92CE
:101430000FB60F9211248F93F89481E080933B02B2
:1014400078948F910F900FBE0F901F90189590E099
:101450008A309105A0F5FC01E857FF4F660F771F12
:101460000C94FE38FB01E054FE4F23C0FB01E45511
:10147000FE4F1FC0FB01E856FE4F1BC0FB01EC579F
:10148000FE4F17C0FB01E059FE4F13C0FB01E45AA9
:10149000FE4F0FC0FB01E85BFE4F0BC0FB01EC5C95
:1014A000FE4F07C0FB01E05EFE4F03C0FB01E45F9F
:1014B000FE4F808191819093590380935803089542
:1014C000AF92BF92DF92EF92FF920F931F93CF9351
:1014D000DF93C4EED1E02881898190E0820F911DD5
:1014E0002A81820F911D2B81820F911D6AE070E08D
:1014F0000E94EA38909341038093400324E0A22E97
:1015000021E0B22EBC01F50180810E94270A609182
:1015100058037091590362507109709325036093C9
:10152000240308E011E0F80180810E94270A9091CD
:101530005803809159039093430380934403F80127
:1015400020818881820F890F3AE0D32E6D2D0E9471
:10155000DE3847E6E42E43E0F42EF7019083692F4E
:1015600070E0F50181810E94270A60915803709113
:101570005903625071097093740360937303F80107
:1015800081810E94270A909158038091590390937A
:101590001E0380931F03F80121818981820F890F27
:1015A0006D2D0E94DE38F7019183692F70E0F501FF
:1015B00082810E94270A60915803709159036250FA
:1015C000710970934E0360934D03F80182810E946C
:1015D000270A909158038091590390935603809362
:1015E0005703F80122818A81820F890F6D2D0E9495
:1015F000DE38F7019283692F70E0F50183810E9444
:10160000270A6091580370915903625071097093D1
:10161000F6036093F503F80183810E94270A9091F5
:1016200058038091590390933D0380933E03F80142
:1016300023818B81820F890F6D2D0E94DE38F70187
:10164000938380819181A281B381809300019093E3
:101650000101A0930201B093030144E050E068E46B
:1016600070E080E091E0DF91CF911F910F91FF90AA
:10167000EF90DF90BF90AF900C945739ECEFF1E012
:101680008BE0819392E0EA30F907D9F710922003BA
:10169000089561E0809120030E9490048091660388
:1016A000843009F0AEC080912003843009F0A9C0D5
:1016B00080910C02882321F0813009F447C00895FD
:1016C00044E050E064EF71E08CEF91E00E94323929
:1016D000892B21F144E050E06EEE71E08CEF91E057
:1016E0000E943239892BD1F044E050E068EE71E07D
:1016F0008CEF91E00E943239892B81F08091FC01BE
:10170000811113C08091FD0181110FC08091FE01F4
:1017100081110BC08091FF01811107C00E943E0B17
:1017200010920C0281E00C94CC0084E0ECEFF1E02C
:10173000ADE4B2E001900D928A95E1F781E08093EB
:101740000C020E943E0B81E00C94580484E0ECEF04
:10175000F1E0ACE5B3E001900D928A95E1F744E049
:1017600050E06DE472E08CE593E00E943239892B01
:1017700009F040C08091FC019091FD01A091FE0113
:10178000B091FF018093490390934A03A0934B03C8
:10179000B0934C0344E050E063E271E089E493E0ED
:1017A0000E94573982EA8093210362EA89E090E03F
:1017B0000E9461390E943E0B80E180937103109278
:1017C0000C0210923A0260E089E191E00E946139D6
:1017D00060E081E00E94970383E00E94580460E08B
:1017E00080E00E9497038CED95E090930B0280932C
:1017F0000A02089582E00E94CC000E943E0B1092E3
:101800000C020895682F81E00E9497030E943E0B0E
:1018100010923F0384E0E6EDF1E0ACEFB1E001901F
:101820000D928A95E1F788E68093210368E689E0C6
:1018300090E00E94613980E180937103089561E036
:1018400081E00E9497032FEF80E792E021508040D3
:101850009040E1F700C0000060E080E00E94970344
:101860000E943E0B10923F0380E180937103089524
:1018700080912003813021F40E94BE058093D40121
:101880008091D401813011F461E001C062E0809167
:1018900020030E94900480912003843009F078C0D6
:1018A00080916403833509F073C0809121038B36E6
:1018B00009F06EC044E050E064EE71E08CEF91E01E
:1018C0000E943239892B81F48091D401813019F43E
:1018D0008093710335C00E943E0B80E180937103B9
:1018E00085E00E94CC0054C044E050E060E071E02C
:1018F0008CEF91E00E943239892B29F58091D40137
:10190000813049F78091000190910101A09102017D
:10191000B09103018093E4019093E501A093E60167
:10192000B093E70144E050E062E370E084EE91E0C0
:101930000E9457390E94600A8CE08093710381E015
:101940000E941F0C25C044E050E064EF71E08CEF72
:1019500091E00E943239892BD9F044E050E06EEEDC
:1019600071E08CEF91E00E943239892B89F044E0DC
:1019700050E068EE71E08CEF91E00E943239892BE3
:1019800039F080E1809371030E943E0B0E94EF04C6
:1019900080917103803109F03FC08091200388302D
:1019A000E9F448E050E064EF71E08CEF91E00E94D0
:1019B0003239892B61F485E02AC046E050E064EFBB
:1019C00071E08CEF91E00E943239892B29F10E945D
:1019D000EF0480E1809371030C943E0B8630E1F4B8
:1019E00046E050E06EEE71E08CEF91E00E943239FB
:1019F000892B11F484E00BC046E050E068EE71E002
:101A00008CEF91E00E943239892BB9F683E0809304
:101A1000710381E00C941F0C0895809120038130A4
:101A200021F40E94BE058093D4018091D4018130BD
:101A300011F461E001C062E0809120030E949004F3
:101A400080912003843009F0A2C080916403843522
:101A500009F09DC0809121038B3609F098C044E0C5
:101A600050E064EE71E08CEF91E00E943239892BF6
:101A7000D1F58091D401813069F580937103809113
:101A8000FC01813069F48091FD01823049F480913C
:101A9000FE01833029F48091FF01843009F44EC0A7
:101AA0008BE0809328038093290380932A038093FB
:101AB0002B038091280390912903A0912A03B091D0
:101AC0002B038093E4019093E501A093E601B0938A
:101AD000E70134C00E943E0B80E18093710385E0F2
:101AE0000E94CC0054C044E050E060E071E08CEF14
:101AF00091E00E943239892B29F58091D4018130FF
:101B000049F78091000190910101A0910201B091EB
:101B100003018093E4019093E501A093E601B09363
:101B2000E70144E050E062E370E084EE91E00E945F
:101B300057390E94600A8CE08093710381E00E9413
:101B40001F0C25C044E050E064EF71E08CEF91E0A1
:101B50000E943239892BD9F044E050E06EEE71E0FA
:101B60008CEF91E00E943239892B89F044E050E0FB
:101B700068EE71E08CEF91E00E943239892B39F0E8
:101B800080E1809371030E943E0B0E94EF048091DC
:101B90007103803109F03FC0809120038830E9F45F
:101BA00048E050E064EF71E08CEF91E00E94323940
:101BB000892B61F485E02AC046E050E064EF71E0D3
:101BC0008CEF91E00E943239892B29F180E18093DA
:101BD00071030E943E0B0C94EF048630E1F446E062
:101BE00050E06EEE71E08CEF91E00E943239892B6B
:101BF00011F484E00BC046E050E068EE71E08CEF39
:101C000091E00E943239892BB9F683E08093710309
:101C100081E00C941F0C08950F931F93CF93DF93D3
:101C2000CDB7DEB728970FB6F894DEBF0FBECDBF95
:101C30008E010F5F1F4F88E0F80111928A95E9F736
:101C400080912003813021F40E94BE058093D4014D
:101C50008091D401813011F461E001C062E0809193
:101C600020030E94900480912003863009F09CC0DC
:101C700080916403823509F0C0C0809121038936C8
:101C800009F0BBC09091FC01909355038091FD0138
:101C900080937803FAE09F9F800D11248093720354
:101CA0009091FE019093EA039091FF019093EB03D2
:101CB000909100029093EC03909101029093ED03B8
:101CC00024E0829FC001112444E050E06AEE73E0FA
:101CD0008A5A9D4F0E943239892BA1F046E050E08C
:101CE0006EEE71E08CEF91E00E943239892B51F059
:101CF00046E050E068EE71E08CEF91E00E943239EE
:101D0000892BB9F48091D401813051F40E943E0BAB
:101D1000809172038093710381E00E941F0C05C0C3
:101D200085E00E94CC000E943E0B80E1809371030D
:101D300064C046E050E064EF71E08CEF91E00E94F7
:101D40003239892B51F446E050E0B8018CEF91E034
:101D50000E943239892B09F050C08091D401813022
:101D600089F40E943E0B80E18093710328960FB6A0
:101D7000F894DEBF0FBECDBFDF91CF911F910F91C1
:101D80000C94EF040E943E0B80E18093710385E088
:101D900028960FB6F894DEBF0FBECDBFDF91CF916E
:101DA0001F910F910C94CC00883039F58091640319
:101DB000823519F548E050E064EF71E08CEF91E076
:101DC0000E943239892B69F648E050E0B8018CEF67
:101DD00091E00E943239892B21F285E080937103D2
:101DE00081E028960FB6F894DEBF0FBECDBFDF911D
:101DF000CF911F910F910C941F0C28960FB6F89459
:101E0000DEBF0FBECDBFDF91CF911F910F9108951F
:101E1000EF92FF920F931F93CF93DF93CDB7DEB76F
:101E200028970FB6F894DEBF0FBECDBF8E010F5FAF
:101E30001F4F88E0F80111928A95E9F780912003FD
:101E4000813021F40E94BE058093D4018091D40199
:101E5000813011F461E001C062E0809120030E94B2
:101E6000900490912003809166039813CFC08091D5
:101E70002103853609F0CAC00E94BE05F82E809362
:101E8000D40180916603843009F04AC044E050E0F8
:101E900064EE71E08CEF91E00E94323944E050E052
:101EA000892BC9F4B8018CEF91E00E943239892B5B
:101EB00021F1F1E0FF1206C0F092710381E00E946F
:101EC0001F0C2EC00E943E0B80E18093710385E0C1
:101ED0000E94CC0025C064EF71E08CEF91E00E947D
:101EE0003239892B51F044E050E06EEE71E08CEF16
:101EF00091E00E943239892B49F444E050E0B80166
:101F00008CEF91E00E943239892B51F481E0F81274
:101F1000D9CF0E943E0B80E1809371030E94EF04B1
:101F200080916603863009F071C046E050E06EEEA5
:101F300071E08CEF91E00E9432397C01892B71F4C1
:101F400046E050E0B8018CEF91E00E943239892BD5
:101F500029F084E08093710381E019C046E050E0ED
:101F60006EED71E08CEF91E00E94323946E050E076
:101F7000892BC9F4B8018CEF91E00E943239892B8A
:101F800031F18091D401813029F4809371030E9452
:101F90001F0C3CC085E00E94CC000E943E0B80E1FB
:101FA0008093710333C064EF71E08CEF91E00E9485
:101FB0003239892B61F0EF2851F046E050E068EEAD
:101FC00071E08CEF91E00E943239892B49F446E0B0
:101FD00050E0B8018CEF91E00E943239892BB1F4C6
:101FE00080E1F82EF09271038091D401813039F4B0
:101FF0000E943E0BF09271030E94EF0407C00E9402
:102000003E0BF092710385E00E94CC008091710339
:10201000803109F05EC0809120038830A9F448E047
:1020200050E064EF71E08CEF91E00E943239892B2F
:1020300011F548E050E0B8018CEF91E00E94323990
:10204000892BC9F085E034C0863009F042C046E0F3
:1020500050E06EEE71E08CEF91E00E943239892BF6
:10206000E9F046E050E064EF71E08CEF91E00E940F
:102070003239892B71F10E943E0B80E1809371030C
:1020800028960FB6F894DEBF0FBECDBFDF91CF917B
:102090001F910F91FF90EF900C94EF0446E050E0F9
:1020A000B8018CEF91E00E943239892BD1F284E0A3
:1020B0008093710381E028960FB6F894DEBF0FBEBF
:1020C000CDBFDF91CF911F910F91FF90EF900C94B6
:1020D0001F0C28960FB6F894DEBF0FBECDBFDF9160
:1020E000CF911F910F91FF90EF900895CF92DF92C3
:1020F000EF92FF920F931F93CF93DF93CDB7DEB78D
:1021000028970FB6F894DEBF0FBECDBF8E010F5FCC
:102110001F4F88E0F80111928A95E9F7809120031A
:10212000813021F40E94BE058093D4018091D401B6
:10213000813011F461E001C062E0809120030E94CF
:1021400090048091200390916603891309C39091B4
:102150002103973621F0983609F4DFC001C384309B
:1021600009F05CC044E050E064EE71E08CEF91E077
:102170000E94323944E050E0892BC9F4B8018CEF59
:1021800091E00E943239892B71F18091D401813024
:1021900029F4809371030E94020C40C00E943E0B00
:1021A00080E18093710383E00E94CC0037C064EF2C
:1021B00071E08CEF91E00E943239892BA1F044E06C
:1021C00050E06EEE71E08CEF91E00E943239892B85
:1021D00051F044E050E068EE71E08CEF91E00E9435
:1021E0003239892B81F48091FC01811117C08091D3
:1021F000FD01811113C08091FE0181110FC08091FA
:10220000FF0181110BC080E1809371030E943E0B9E
:102210008091D401813011F60E94EF048091660311
:10222000863009F09DC246E050E06EEE71E08CEF22
:1022300091E00E9432396C01892B59F446E050E05C
:10224000B8018CEF91E00E943239892B11F084E0C3
:1022500015C046E050E068EE71E08CEF91E00E941E
:1022600032397C01892B81F446E050E0B8018CEFD3
:1022700091E00E943239892B39F083E08093710319
:1022800081E00E941F0C6CC246E050E06EED71E0F0
:102290008CEF91E00E94323946E050E0892BC9F47E
:1022A000B8018CEF91E00E943239892BF1F08091D6
:1022B000D401813029F4809371030E94020C50C232
:1022C0000E943E0B80E18093710383E00E94CC006A
:1022D00047C264EF71E08CEF91E00E943239892BA4
:1022E00021F0CD2811F0EF2851F446E050E0B8017C
:1022F0008CEF91E00E943239892B09F031C210E154
:10230000109371038091D4018130D1F60E943E0B6D
:10231000109371030E94EF0423C29091D401913075
:1023200009F019C2843009F00FC144E050E064EFB5
:1023300071E08CEF91E00E943239892BE9F044E0A2
:1023400050E06EEE71E08CEF91E00E943239892B03
:1023500099F044E050E068EE71E08CEF91E00E946B
:102360003239892B49F046E050E0B8018CEF91E01A
:102370000E943239892B31F40E943E0B83E00E9487
:10238000CC00D9C080915502813009F044C08091C1
:10239000FC019091FD01A091FE01B091FF0180939D
:1023A000E4019093E501A093E601B093E70144E0D6
:1023B00050E062E370E084EE91E00E94573981E0E2
:1023C0000E9458040E943E0B61E080E00E94970347
:1023D00087E68093210367E689E090E00E946139F7
:1023E00084E0E6EDF1E0ADE4B2E001900D928A9573
:1023F000E1F784E0E6EDF1E0ACE5B3E001900D92A9
:102400008A95E1F784E0E6EDF1E0ACEFB1E0019010
:102410000D928A95E1F780915502823009F094C0BF
:1024200080910C02882319F0813099F08DC084E0EE
:10243000ECEFF1E0ADE4B2E001900D928A95E1F7A6
:1024400081E080930C020E943E0B82E00E945804BF
:102450007BC084E0ECEFF1E0ACE5B3E001900D92DD
:102460008A95E1F710920C0244E050E06CE573E0CD
:102470008DE492E00E943239892B09F045C08091A9
:102480005C0390915D03A0915E03B0915F03809324
:10249000E4019093E501A093E601B093E70144E0E5
:1024A00050E062E370E084EE91E00E94573983E0EF
:1024B0000E9458040E943E0B84E0E6EDF1E0ADE49A
:1024C000B2E001900D928A95E1F784E0E6EDF1E04B
:1024D000ACE5B3E001900D928A95E1F784E0E6ED7A
:1024E000F1E0ACEFB1E001900D928A95E1F761E087
:1024F00080E00E94970387E68093210367E689E0E6
:1025000090E00E94613920C080E00E947B040E941C
:102510003E0B84E0E6EDF1E0ADE4B2E001900D9217
:102520008A95E1F784E0E6EDF1E0ACE5B3E00190F7
:102530000D928A95E1F784E0E6EDF1E0ACEFB1E0D1
:1025400001900D928A95E1F780916603863009F03B
:1025500007C146E050E064EF71E08CEF91E00E942B
:102560003239892BE9F046E050E06EEE71E08CEFF5
:1025700091E00E943239892B99F046E050E068EEF4
:1025800071E08CEF91E00E943239892B49F046E0EE
:1025900050E0B8018CEF91E00E943239892B31F480
:1025A00085E00E94CC000E943E0BCBC0809155027A
:1025B000813009F040C086E0ECEFF1E0AEEDB1E033
:1025C00001900D928A95E1F746E050E066E370E0F5
:1025D0008EED91E00E94573981E00E94580461E03D
:1025E00080E00E94970387E68093210367E689E0F5
:1025F00090E00E94613981E00E9458040E943E0BE5
:1026000086E0E6EDF1E0ADE4B2E001900D928A954E
:10261000E1F786E0E6EDF1E0ACE5B3E001900D9284
:102620008A95E1F786E0E6EDF1E0ACEFB1E00190EC
:102630000D928A95E1F780915502823009F090C0A1
:1026400080910C02882319F0813099F089C086E0CE
:10265000ECEFF1E0ADE4B2E001900D928A95E1F784
:1026600081E080930C020E943E0B81E00E9458049E
:1026700077C086E0ECEFF1E0ACE5B3E001900D92BD
:102680008A95E1F710920C0246E050E06CE573E0A9
:102690008DE492E00E943239892BF1F586E0ECE579
:1026A000F3E0AEEDB1E001900D928A95E1F746E0DE
:1026B00050E066E370E08EED91E00E94573982E0D1
:1026C0000E9458040E943E0B86E0E6EDF1E0ADE486
:1026D000B2E001900D928A95E1F786E0E6EDF1E037
:1026E000ACE5B3E001900D928A95E1F786E0E6ED66
:1026F000F1E0ACEFB1E001900D928A95E1F761E075
:1027000080E00E94970387E68093210367E689E0D3
:1027100090E00E94613924C080E00E947B0486E042
:10272000E6EDF1E0ADE4B2E001900D928A95E1F7BB
:1027300086E0E6EDF1E0ACE5B3E001900D928A951C
:10274000E1F786E0E6EDF1E0ACEFB1E001900D924B
:102750008A95E1F705C085E00E94CC000E943E0BFF
:1027600010917103103109F076C0809121038736F2
:1027700009F071C080912003883011F548E050E0E5
:1027800064EF71E08CEF91E00E943239892BA1F463
:1027900085E08093710381E028960FB6F894DEBF40
:1027A0000FBECDBFDF91CF911F910F91FF90EF90A2
:1027B000DF90CF900C94020C85E08093710339C0B8
:1027C000863009F048C046E050E06EEE71E08CEFD4
:1027D00091E00E943239892B11F484E00BC046E06D
:1027E00050E068EE71E08CEF91E00E943239892B65
:1027F000A1F483E08093710381E028960FB6F894EA
:10280000DEBF0FBECDBFDF91CF911F910F91FF9023
:10281000EF90DF90CF900C941F0C46E050E064EFF7
:1028200071E08CEF91E00E943239892BA1F0109376
:1028300071030E943E0B28960FB6F894DEBF0FBEC0
:10284000CDBFDF91CF911F910F91FF90EF90DF905F
:10285000CF900C94EF0428960FB6F894DEBF0FBE0D
:10286000CDBFDF91CF911F910F91FF90EF90DF903F
:10287000CF90089561E0809120030E9490048091A0
:102880002003883009F0BFC080910C02882321F01A
:10289000813009F46EC0089580917103853091F004
:1028A0000E943E0B8091EE038093640380913C0371
:1028B0008093210380E18093710310920C0282E0E7
:1028C0000C94CC0044E050E064EE71E08CEF91E0B9
:1028D0000E943239892B21F346E050E06EEE71E020
:1028E0008CEF91E00E943239892BD1F246E050E022
:1028F00068EE71E08CEF91E00E943239892B81F211
:102900000E945E05882361F28091FC0181111DC047
:102910008091FD01811119C08091FE01811115C0C6
:102920008091FF01811111C08091000281110DC0C1
:1029300080910102811109C080910202811105C0BC
:1029400080910302882309F4ABCF80917103853015
:1029500009F059C088E0ECEFF1E0ADE4B2E001909D
:102960000D928A95E1F781E080930C020E943E0B64
:1029700035C088E0ECEFF1E0ACE5B3E001900D92FA
:102980008A95E1F748E050E06DE472E08CE593E071
:102990000E943239892B29F588E0ECE5F3E0A4EFB9
:1029A000B1E001900D928A95E1F748E050E06EE1C8
:1029B00070E084EF91E00E9457390E943E0B8091B5
:1029C000EE038093640380913C038093210380E1B4
:1029D000809371030E943E0B10920C0283E00C94D2
:1029E000580482E00E94CC000E943E0B8091EE03CE
:1029F0008093640380913C038093210380E1809362
:102A0000710310920C02089561E0809120030E94EE
:102A1000900480912003843009F08AC0809164037F
:102A2000873509F085C080916603843009F080C045
:102A300044E050E064EF71E08CEF91E00E943239A5
:102A4000892B21F144E050E06EEE71E08CEF91E0D3
:102A50000E943239892BD1F044E050E068EE71E0F9
:102A60008CEF91E00E943239892B81F08091FC013A
:102A7000811123C08091FD0181111FC08091FE0151
:102A800081111BC08091FF01811117C080913C030F
:102A9000809321038091EE03809364038AE090E0A9
:102AA0000E944F398093660380E1809371030E94F6
:102AB0003E0B82E00E94CC003BC08091FC019091D3
:102AC000FD01A091FE01B091FF018093E40190937C
:102AD000E501A093E601B093E70144E050E062E332
:102AE00070E084EE91E00E94573985E680932103DF
:102AF00080E58093640365E689E090E00E94613997
:102B00006091640388E090E00E94613960916603FF
:102B10008AE090E00E94613980E1809371030E9415
:102B20003E0B83E00E94580460E080E00E9497031F
:102B300080912003863009F08AC080916403873534
:102B400009F085C080916603863009F080C046E0B8
:102B500050E064EF71E08CEF91E00E943239892BF4
:102B600061F146E050E06EEE71E08CEF91E00E9482
:102B70003239892B11F146E050E068EE71E08CEFBC
:102B800091E00E943239892BC1F08091FC018111C2
:102B90002AC08091FD01811126C08091FE01811122
:102BA00022C08091FF0181111EC08091000281111D
:102BB0001AC080910102811116C080913C0380935C
:102BC00021038091EE03809364038AE090E00E94E9
:102BD0004F398093660380E1809371030E943E0B1E
:102BE00082E00C94CC0086E0ECEFF1E0AEEDB1E0D9
:102BF00001900D928A95E1F746E050E066E370E0BF
:102C00008EED91E00E94573985E68093210380E59F
:102C10008093640365E689E090E00E9461396091E9
:102C2000640388E090E00E946139609166038AE065
:102C300090E00E94613980E1809371030E943E0B15
:102C400083E00E94580460E080E00C9497030895AC
:102C500061E0809120030E949004809120038630DF
:102C600009F016C180917103843009F464C0853085
:102C700009F00EC144E050E064EE71E08CEF91E0A9
:102C80000E943239892B61F146E050E06EED71E02F
:102C90008CEF91E00E943239892B11F146E050E02F
:102CA00068EE71E08CEF91E00E943239892BC1F01F
:102CB0008091FC01811120C08091FD0181111CC017
:102CC0008091FE01811118C08091FF01811114C013
:102CD00080910002811110C08091010281110CC00D
:102CE00080913C03809321038091EE0380936403E1
:102CF00080E18093710387C086E0ECEFF1E0AEEEF7
:102D0000B1E001900D928A95E1F746E050E066E26D
:102D100070E08EEE91E00E94573980913C038093E1
:102D200021038091EE038093640380E1809371031B
:102D30000E943E0B1EC080910C02882321F081303E
:102D400009F464C0089544E050E064EE71E08CEF53
:102D500091E00E943239892B79F480913C03809371
:102D600021038091EE03809364030E943E0B109236
:102D70000C0283E00C94580446E050E06EEE71E0E3
:102D80008CEF91E00E943239892B39F346E050E014
:102D900064EF71E08CEF91E00E943239892BE9F207
:102DA00046E050E068EE71E08CEF91E00E9432392D
:102DB000892B99F20E945E05882379F28091FC01AB
:102DC000811115C08091FD01811111C08091FE011A
:102DD00081110DC08091FF01811109C08091000215
:102DE000811105C080910102882309F4B6CF86E0E5
:102DF000ECEFF1E0ADE4B2E001900D928A95E1F7DD
:102E000081E080930C020E943E0B3FC086E0ECEF15
:102E1000F1E0ACE5B3E001900D928A95E1F746E070
:102E200050E06DE472E08CE593E00E943239892B2A
:102E3000E9F486E0ECE5F3E0AEEEB1E001900D924E
:102E40008A95E1F746E050E066E270E08EEE91E0B0
:102E50000E94573980913C03809321038091EE03B7
:102E60008093640380E1809371037FCF80E180933E
:102E7000710380913C03809321038091EE03809342
:102E800064030E943E0B10920C0282E00C94CC0072
:102E900008950F931F9361E0809120030E94900496
:102EA00080912003823009F59091FC0190935503A5
:102EB0008091FD01809378032AE0929F800D112478
:102EC00080937203823308F4AEC080913C038093F8
:102ED00021038091EE038093640380E1809371036A
:102EE0000E943E0B82E00E94CC008091200386303D
:102EF00009F099C046E050E064EF71E08CEF91E09A
:102F00000E943239892B09F47CC046E050E06EEE15
:102F100071E08CEF91E00E943239892B09F471C085
:102F200046E050E068EE71E08CEF91E00E943239AB
:102F3000892B09F466C00E945E05882309F461C0EC
:102F40008091FE0181110DC09091FF01911109C086
:102F500090910002911105C090910102992309F40A
:102F600050C09091FC01909355036091FD016093D6
:102F70007803EAE09E9F600D112460937203623330
:102F800008F03FC08093EA038091FF018093EB0338
:102F9000809100028093EC03809101028093ED0305
:102FA00070E0CB01880F991F880F991F8A5A9D4F97
:102FB0000091EA031091EB032091EC033091ED03B3
:102FC000FC0100831183228333836D5E7F4F660F84
:102FD000771F660F771F44E050E00E9457398091B9
:102FE0003C03809321038091EE038093640380E18E
:102FF000809371030E943E0B83E01F910F910C940C
:10300000580480913C03809321038091EE038093C8
:10301000640380E1809371030E943E0B82E01F9164
:103020000F910C94CC001F910F9108950F931F9353
:1030300061E0809120030E949004809120038230FF
:1030400009F048C08091FC01809355036091FD0117
:10305000609378039AE0899F600D11246093720356
:103060008BE08093EA038093EB038093EC038093DF
:10307000ED0370E0CB01880F991F880F991F8A5AC2
:103080009D4F0091EA031091EB032091EC033091E6
:10309000ED03FC0100831183228333836D5E7F4F38
:1030A000660F771F660F771F44E050E00E94573984
:1030B00080913C03809321038091EE03809364030D
:1030C00080E1809371030E943E0B83E01F910F917A
:1030D0000C9458041F910F91089561E08091200392
:1030E0000E94900480912003863009F079C044E06A
:1030F00050E064EE71E08CEF91E00E943239892B50
:1031000021F4809166038430D1F146E050E06EED09
:1031100071E08CEF91E00E943239892B21F480918B
:103120006603863061F146E050E06EEE71E08CEFB0
:1031300091E00E943239892B11F146E050E064EFB2
:1031400071E08CEF91E00E943239892BC1F08091BF
:10315000FC01811124C08091FD01811120C080916A
:10316000FE0181111CC08091FF01811118C0809166
:103170000002811114C080910102811110C0809160
:103180003C03809321038091EE038093640380E1EC
:10319000809371030E943E0B82E00C94CC0086E089
:1031A000ECEFF1E0A8EEB1E001900D928A95E1F725
:1031B00046E050E06CE270E088EE91E00E94573902
:1031C00080913C03809321038091EE0380936403FC
:1031D00080E1809371030E943E0B83E00C945804BD
:1031E000089561E0809120030E9490048091200363
:1031F000813051F56091FC016430B0F460934C0271
:1032000087E090E00E94613980913C038093210324
:103210008091EE038093640380E1809371030E94A8
:103220003E0B83E00C94580480E1809371038091FD
:10323000EE038093640380913C03809321030E94FA
:103240003E0B83E00C94CC00089562E08091200353
:103250000E94900480912003883009F04DC0809135
:10326000FC018930C9F58091FD018830A9F5809174
:10327000FE01873089F58091FF01863069F58091E4
:103280000002811129C080910102813029F58091CD
:103290000202823009F5809103028330E9F484E16F
:1032A0000E94CC0060E081E090E00E94613960E023
:1032B00082E090E00E9461398091EE038093640384
:1032C00080913C03809321030E943E0B80E1809318
:1032D000710383E00C94580480E180937103809122
:1032E000EE038093640380913C03809321030E944A
:1032F0003E0B83E00C94CC00089561E080912003A4
:103300000E94900480912003843079F58091FC0123
:10331000833038F48091FE01863018F483E00C94F9
:1033200058048091EE038093640380913C03809362
:1033300021030E943E0B80E18093710310922803C9
:103340001092290310922A0310922B0310922C033F
:103350001092790310927A0310927B0310927C03EF
:1033600010927D0383E00C94CC00883009F0BFC03C
:103370008091FE0120E1829FC00111244091FF0154
:10338000482B409379038091FC0130E1839FC00179
:1033900011242091FD01282B20937A0380910202B1
:1033A00050E1859FC001112430910302382B3093E6
:1033B0007B038091000250E1859FC0011124909110
:1033C0000102892B80937C03431365C0281363C0DB
:1033D00060E081E190E00E94613910923A0262E07F
:1033E00089E00E94FB066091790382E190E00E94EF
:1033F000613960917A0383E190E00E94613961E074
:1034000081E190E00E94613960E089E191E00E94F1
:103410006139109245031092530310924F0310929A
:10342000750360E08BE191E00E9461396091530384
:103430008CE191E00E94613960914F038DE191E050
:103440000E946139609175038EE191E00E946139BB
:1034500062E080E00E94A00582E08093790361E051
:1034600081E00E94FB066091790382E291E00E9474
:103470006139E89A6DB380E291E00E9461398091F0
:10348000EE038093640380913C038093210383E0E7
:103490000E9458040BC08091EE03809364038091D6
:1034A0003C038093210382E00E94CC0080E1809362
:1034B00071030E943E0B1092790310927A031092CE
:1034C0007B0310927C0310927D0362E089E00E94EE
:1034D000A0051092790310927A0310927B03109248
:1034E0007C0310927D0362E080E00C94A0050895B7
:1034F00061E0809120030E94900480912003843039
:1035000079F58091FC01833038F48091FE0186309A
:1035100018F483E00C9458048091EE0380936403C4
:1035200080913C03809321030E943E0B80E18093B5
:103530007103109228031092290310922A0310920B
:103540002B0310922C031092790310927A0310929D
:103550007B0310927C0310927D0383E00C94CC00DB
:10356000883009F060C08091FE0120E1829FC00197
:1035700011244091FF01482B40937A038091FC0174
:1035800030E1839FC00111242091FD01282B20935D
:103590007B038091020250E1859FC001112430918C
:1035A0000302382B30937C038091000250E1859F09
:1035B000C001112490910102892B80937D03431354
:1035C00018C0281316C01092790363E082E00E94AD
:1035D000FB066CE080E00E94A0058091EE038093E2
:1035E000640380913C038093210383E00E9458048C
:1035F0000BC08091EE038093640380913C03809321
:10360000210382E00E94CC0080E1809371030E943C
:103610003E0B1092790310927A0310927B03109262
:103620007C0310927D03089561E0809120030E9445
:10363000900480912003873009F052C02091FC0152
:10364000243048F58091FE01823028F540E1249F26
:10365000900111249091FD01292B2093790320E101
:10366000829FC00111249091FF01892B80937B03DD
:103670008091020280937A038091000240E1849F4E
:10368000C001112490910102892B80937C0381E079
:103690000E94580420C00E943E0B80E18093710379
:1036A0008091EE038093640380913C038093210317
:1036B0001092790310927A0310927B0310927C038C
:1036C00010927D0310927E0310927F03109280036C
:1036D00082E00E94CC001092F4031092F30308954C
:1036E0008E3009F064C08091030220E1829FC00106
:1036F000112430910402382B30937D038091050210
:1037000040E1849FC001112420910602282B2093C0
:103710007F035091090250937E038091070240E19C
:10372000849FC001112490910802892B809380030B
:10373000609179034091EE0390913C0336131BC0D6
:1037400030917A03531317C030917B03231313C0B6
:1037500020917C0382130FC080E18093710340931A
:1037600064039093210364E085E00E94FB0683E0FC
:103770000E9458040AC080E180937103409364035F
:103780009093210382E00E94CC000E943E0B109295
:10379000790310927A0310927B0310927C031092AB
:1037A0007D0310927E0310927F0310928003089590
:1037B00061E0809120030E94900480912003843076
:1037C00029F58091FC01833038F48091FE01863028
:1037D00018F483E00C9458048091EE038093640302
:1037E00080913C03809321030E943E0B80E18093F3
:1037F0007103109228031092290310922A03109249
:103800002B0310922C0383E00C94CC00883009F039
:10381000A3C08091FE0120E1829FC00111249091FC
:10382000FF01892B809328032091FC0190E1299FBF
:10383000900111249091FD01292B2093290340919F
:10384000020230E1439FA001112490910302942BC6
:1038500090932A034091000230E1439FA00111247C
:1038600030910102432B40932B03891356C024133C
:1038700054C090912103953759F42093E00380932D
:10388000760383E00E94580486E7809321035CC09E
:10389000963709F059C081E080933A0261E089E1EE
:1038A00091E00E9461396091E0036093450380914B
:1038B0007603809353038BE191E00E94613960911C
:1038C00053038CE191E00E94613960912903609378
:1038D0004F0380912803809375038DE191E00E944E
:1038E0006139609175038EE191E00E94613960E079
:1038F00081E190E00E94613980E1809371030E9430
:103900003E0B8091EE038093640380913C0380938F
:10391000210383E00E94580417C080E18093710363
:103920000E943E0B10923A0260E089E191E00E9411
:1039300061398091EE038093640380913C0380930E
:10394000210382E00E94CC001092280310922903E8
:1039500010922A0310922B030895F89461E080914D
:1039600020030E94900480912003853059F58091B6
:10397000FC01833060F48091FE01863040F4809138
:103980000002833020F483E00E9458041DC180911E
:10399000EE038093640380913C03809321030E9493
:1039A0003E0B80E18093710310922803109229034B
:1039B00010922A0310922B0310922C0383E00E9492
:1039C000CC0002C18A3009F0FFC08091FE0120E1E5
:1039D000829FC00111249091FF01892B80932803BD
:1039E0002091FC0190E1299F900111249091FD010B
:1039F000292B209329034091030230E1439FA0012A
:103A0000112490910402942B90932A034091010277
:103A100030E1439FA001112430910202432B4093D7
:103A20002B038913B2C02413B0C0309100029091CF
:103A300005023913AAC0909121039B3759F42093B2
:103A4000E0038093760383E00E9458048CE7809320
:103A50002103B2C09C3709F0AFC081E080933A02E5
:103A600061E089E191E00E9461396091E003609337
:103A7000450380917603809353038BE191E00E948C
:103A80006139609153038CE191E00E94613960914A
:103A9000290360934F0380912803809375038DE180
:103AA00091E00E946139609175038EE191E00E947E
:103AB000613980910002813079F048F08230A1F4C0
:103AC000809175038093790380914F030BC010920E
:103AD000790310927A0308C080915303809379038D
:103AE0008091450380937A036091790382E190E0AD
:103AF0000E94613960917A0383E190E00E9461390C
:103B000062E089E00E94FB0662E089E00E94A00575
:103B100061E081E00E94A00580910002882351F0BD
:103B2000833098F480917903826080937903E89AD6
:103B300061E007C0809179038D7F80937903E898D5
:103B400060E081E190E00E94613961E081E00E94E3
:103B5000FB066091790382E291E00E9461396DB3C6
:103B600080E291E00E94613980E1809371030E94BC
:103B70003E0B8091EE038093640380913C0380931D
:103B8000210383E00E94580417C080E180937103F1
:103B90000E943E0B10923A0260E089E191E00E949F
:103BA00061398091EE038093640380913C0380939C
:103BB000210382E00E94CC00109228031092290376
:103BC00010922A0310922B037894089561E080915B
:103BD00020030E94900480916603843009F0ABC0FA
:103BE00080912003843009F0A6C080910C028823C4
:103BF00021F0813009F447C0089544E050E064EFBB
:103C000071E08CEF91E00E943239892B21F144E080
:103C100050E06EEE71E08CEF91E00E943239892B1A
:103C2000D1F044E050E068EE71E08CEF91E00E944A
:103C30003239892B81F08091FC01811113C0809170
:103C4000FD0181110FC08091FE0181110BC0809197
:103C5000FF01811107C00E943E0B10920C0281E00F
:103C60000C94CC0084E0ECEFF1E0ADE4B2E0019024
:103C70000D928A95E1F781E080930C020E943E0B41
:103C800081E00C94580484E0ECEFF1E0ACE5B3E0A3
:103C900001900D928A95E1F744E050E06DE472E006
:103CA0008CE593E00E943239892BF1F58091FC017B
:103CB0009091FD01A091FE01B091FF018093490315
:103CC00090934A03A0934B03B0934C0344E050E01D
:103CD00063E271E089E493E00E94573985EA8093BA
:103CE000210365EA89E090E00E9461390E943E0B61
:103CF00080E18093710310920C0210923A0260E00E
:103D000089E191E00E94613960E081E190E00E94E8
:103D1000613960E081E00E94970383E00E945804CB
:103D200060E080E00C94970382E00E94CC000E9447
:103D30003E0B10920C0208954F925F926F927F9209
:103D40008F929F92AF92BF92CF92DF92EF92FF92AB
:103D500062E0809120030E949004809120038630CD
:103D600069F446E050E06EEE71E08CEF91E00E9465
:103D70003239892B09F032C184E00EC0883009F055
:103D80002DC148E050E064EF71E08CEF91E00E94BB
:103D90003239892B69F485E08093710360E081E01A
:103DA0000E9497030E943E0B80E18093710316C12D
:103DB00044E050E06CE370E088E091E00E943F391D
:103DC0008091FC0190910A01282F30E0291B3109D4
:103DD00037FD865F891B8093FC018091FD019091E6
:103DE0000801282F30E0291B310937FD865F891B28
:103DF0008093FD018091FF0190910B01282F30E00D
:103E0000291B310937FD865F891B8093FF01809153
:103E1000010290910901282F30E0291B310937FD5B
:103E2000865F891B80930102A091FC01F090FD0147
:103E3000F091FE01B090FF01E0910002A09001021C
:103E40008A2F8F0D8F0F8B0D8E0F8A0D809341025D
:103E500020910202909103023AE0239F900D1124D9
:103E60009093F0038913A7C0B0E020EA36E841E060
:103E700050E00E9413392B013C012F2D30E0A0E1CE
:103E8000B7E20E94043973016201C60ED71EE81E14
:103E9000F91ECA0CD11CE11CF11C2B2D30E0A4E64C
:103EA000B0E00E940439C60ED71EE81EF91E2F2F5F
:103EB00030E0A8EEB3E00E940439C60ED71EE81E1B
:103EC000F91E2E2F30E0AAE0B0E00E940439DC0198
:103ED000CB018C0D9D1DAE1DBF1D809342029093A2
:103EE0004302A0934402B09345022C013D0125E01A
:103EF00076946794579447942A95D1F74C015D01C5
:103F000039E0B694A794979487943A95D1F76C01C9
:103F10007D014DE0F694E794D794C7944A95D1F784
:103F2000382F367030934703582D567050935203F4
:103F30002C2D26702093F903442D467040936B037B
:103F4000682F6971622B60934B02842D8970582B06
:103F50005093DE03882D8970482B409348038C2DA5
:103F60008971382B3093F20385E191E00E94613929
:103F70006091F20386E191E00E946139609148030B
:103F800087E191E00E9461396091DE0388E191E070
:103F90000E9461390E940106813069F481EA8093B0
:103FA000210383E00E94580488EB9BE090930B026E
:103FB00080930A0202C00E94EF0480E180937103A3
:103FC000FF90EF90DF90CF90BF90AF909F908F9039
:103FD0007F906F905F904F900C943E0BFF90EF900E
:103FE000DF90CF90BF90AF909F908F907F906F9019
:103FF0005F904F900895CF930E940106C82F809341
:10400000D401813009F007C161E0809120030E9452
:10401000900480916603843009F062C0809120038F
:10402000843009F05DC044E050E063E271E089E46F
:1040300093E00E943F3944E050E069E473E08CEF84
:1040400091E00E943239892BB1F48091FC018823E0
:1040500091F08091FD01882371F08091FE01882309
:1040600051F08091FF01882331F0C093710381E00A
:104070000E941F0C35C044E050E068EE71E08CEF08
:1040800091E00E943239892BA1F044E050E064EFC6
:1040900071E08CEF91E00E943239892B51F044E0BD
:1040A00050E06EEE71E08CEF91E00E943239892B86
:1040B00081F48091FC01811113C08091FD01811177
:1040C0000FC08091FE0181110BC08091FF01811111
:1040D00007C080E1809371030E943E0B0E94EF04B1
:1040E00080917103803109F0B9C08091200386303E
:1040F00008F4B4C0883071F548E050E064EF71E036
:104100008CEF91E00E943239892B09F044C08091F4
:10411000FC01882309F43FC08091FD018823D9F177
:104120008091FE018823B9F18091FF01882399F1E4
:1041300080910002882379F180910102882359F14E
:1041400080910202882339F180910302882319F1BA
:1041500085E042C0863009F081C046E050E06EEE56
:1041600071E08CEF91E00E943239892BE1F046E05A
:1041700050E068EE71E08CEF91E00E943239892BBB
:1041800091F046E050E064EF71E08CEF91E00E9426
:104190003239892B39F10E943E0B80E18093710303
:1041A000CF910C94EF048091FC01882351F380910E
:1041B000FD01882331F38091FE01882311F3809162
:1041C000FF018823F1F2809100028823D1F28091CF
:1041D00001028823B1F284E08093710381E0CF91E2
:1041E0000C941F0C8091FC01811138C08091FD015D
:1041F000811134C08091FE01811130C08091FF0196
:1042000081112CC080910002811128C0809101028F
:10421000882309F223C062E0809120030E94900469
:104220001092490310924A0310924B0310924C03D0
:1042300044E050E063E271E089E493E00E94573982
:1042400080E18093710380EA8093210360EA89E032
:1042500090E00E946139CF910C949C1ECF910895FB
:1042600080916403853571F480912103813A31F0A6
:10427000823A31F0803A31F40C949C1E0C94490B34
:104280000C94FB1F08954F925F926F927F928F92D2
:104290009F92AF92BF92CF92DF92EF92FF920F93D5
:1042A0001F93CF93DF9300D000D0CDB7DEB7F89443
:1042B00062E0809120030E94900480912003883066
:1042C00069F448E050E064EF71E08CEF91E00E9407
:1042D0003239892B09F0F4C185E00EC08630C1F473
:1042E00046E050E06EEE71E08CEF91E00E943239D2
:1042F000892B09F0E5C184E08093710360E081E0DF
:104300000E9497030E943E0B80E180937103D8C105
:104310008B3009F0D5C144E050E06CE370E088E0F8
:1043200091E00E943F398091FC01E0910A014E2FFB
:1043300050E0282F30E0241B350B37FD865F8E1BA5
:104340008093FC018091FD01F09108016F2F70E0D6
:10435000282F30E0261B370B37FD865F8F1B80939D
:10436000FD018091FF0190910B01292F30E0A82FD2
:10437000B0E0A21BB30BB7FD865F891B8093FF01E2
:1043800080910102A0910901082F10E00A1B110978
:1043900017FD865F8A1B8093010280910202A82F7D
:1043A000B0E06D01C61AD70AD7FC865F8F1B8093D9
:1043B000020280910302682F70E07B01E41AF50A83
:1043C000F7FC865F8E1B8093030280910402482FC6
:1043D00050E08A01021B130B17FD865F891B809337
:1043E0000402A091FC01F090FD01B090FE01A090AC
:1043F000FF011091000200910102E0910202F09190
:104400000302909004028A2F8F0D8B0D8A0D810F6D
:10441000800F8E0F8F0F890D80934102209105022E
:10442000909106023AE0239F900D11249093F0039F
:10443000891711F011E00CC1B0E020E031EE45EF3A
:1044400055E00E9413392B013C01AF2DB0E020E86C
:1044500036E948E950E00E94133973016201C60E43
:10446000D71EE81EF91EC90CD11CE11CF11CAA2D97
:10447000B0E020EA36E841E050E00E941339C60E71
:10448000D71EE81EF91EAB2DB0E020E432E44FE069
:1044900050E00E941339C60ED71EE81EF91E202FC9
:1044A00030E0A8EEB3E00E940439C60ED71EE81E25
:1044B000F91E212F30E0A0E1B7E20E940439C60EB8
:1044C000D71EE81EF91E2F2F30E0AAE0B0E00E94B0
:1044D0000439C60ED71EE81EF91E2E2F30E0A4E6C2
:1044E000B0E00E9404396C0D7D1D8E1D9F1D6093F0
:1044F00042027093430280934402909345028B01E1
:104500009C014EE036952795179507954A95D1F76A
:104510006B017C0153E1F694E794D794C7945A95C4
:10452000D1F7C982DA82EB82FC822B013C01E7E100
:104530007694679457944794EA95D1F74B015C01C0
:10454000F5E0B694A79497948794FA95D1F76B0108
:104550007C01A9E0F694E794D794C794AA95D1F783
:10456000E02FE670E09347034981467040936B0368
:10457000542D567050935203F62FF670F093F903B2
:10458000A82DA670A0934203BC2DB670B0936E0305
:104590000971202F2B2B20934B02398139703A2B34
:1045A00030934803A42DA9714A2E4F2A4092F2035A
:1045B0006971652B60937703882D8970842B8093B4
:1045C0006F039C2D9971C92ECE2AC092F103283118
:1045D0000CF030CF68310CF02DCF8D300CF02ACF9D
:1045E0003D300CF027CF622F85E191E00E946139C8
:1045F0006091F20386E191E00E9461396091480385
:1046000087E191E00E9461396091770387E291E050
:104610000E9461396091F10388E291E00E94613962
:1046200060916F0389E291E00E9461390E947406F3
:10463000813009F0FFCE84EA8093210383E00E9459
:10464000580488EB9BE090930B0280930A0210E0E1
:1046500080E1809371030E943E0B113089F50E9426
:10466000EF0410924B02109248031092F203109242
:10467000770310926F031092F10360E085E191E0FF
:104680000E9461396091F20386E191E00E946139F4
:1046900060916F0387E191E00E9461396091770337
:1046A00087E291E00E9461396091F10388E291E034
:1046B0000E94613960916F0389E291E00E94613943
:1046C00078940F900F900F900F90DF91CF911F91E2
:1046D0000F91FF90EF90DF90CF90BF90AF909F90A1
:1046E0008F907F906F905F904F9008950E94740616
:1046F0008093D401813009F0D3C061E08091200320
:104700000E94900480916603843009F06AC0809111
:104710002003843009F065C044E050E063E271E0BA
:1047200089E493E00E943F3944E050E069E473E09B
:104730008CEF91E00E943239892BF1F48091FC01D9
:104740008823D1F08091FD018823B1F08091FE0192
:10475000882391F08091FF01882371F080910002FD
:10476000882351F080910102882331F081E0809309
:1047700071030E941F0C35C044E050E068EE71E008
:104780008CEF91E00E943239892BA1F044E050E097
:1047900064EF71E08CEF91E00E943239892B51F087
:1047A00044E050E06EEE71E08CEF91E00E9432390F
:1047B000892B81F48091FC01811113C08091FD014E
:1047C00081110FC08091FE01882359F08091FF0173
:1047D000811107C080E1809371030E943E0B0E940B
:1047E000EF0480917103803109F07CC08091200337
:1047F000863008F477C0883061F448E050E064EF18
:1048000071E08CEF91E00E943239892B21F585E02F
:1048100042C0863009F066C046E050E06EEE71E0BE
:104820008CEF91E00E943239892BE1F046E050E0B4
:1048300068EE71E08CEF91E00E943239892B91F0A3
:1048400046E050E064EF71E08CEF91E00E94323975
:10485000892B09F447C00E943E0B80E180937103CD
:104860000C94EF048091FC01882351F38091FD01A9
:10487000882331F38091FE01882311F38091FF0199
:104880008823F1F2809100028823D1F28091010205
:104890008823B1F284E08093710381E00C941F0CB3
:1048A00062E0809120030E949004109249031092CC
:1048B0004A0310924B0310924C0344E050E063E231
:1048C00071E089E493E00E94573980E1809371039D
:1048D00083EA8093210363EA89E090E00E946139D2
:1048E0000C944321089580916403863571F480917E
:1048F0002103843A31F0853A31F0833A31F40C9453
:1049000043210C94E61D0C94762308951F920F9278
:104910000FB60F9211242F933F934F935F936F9392
:104920007F938F939F93AF93BF93EF93FF93F894ED
:104930000E943E0B80914002833350F0109240025F
:1049400010923F0380913F028F5F80933F0203C02C
:104950008F5F809340027894FF91EF91BF91AF9168
:104960009F918F917F916F915F914F913F912F9187
:104970000F900FBE0F901F901895CF93DF9310925A
:104980003A0260E089E191E00E94613910924503AA
:1049900060E08BE191E00E9461391092530360E086
:1049A0008CE191E00E94613910924F0360E08DE14B
:1049B00091E00E9461391092750360E08EE191E010
:1049C0000E94613961E081E00E94A005C9E7D3E05F
:1049D00088818D7F888361E081E00E94FB06688189
:1049E00082E291E00E94613960E081E190E00E9402
:1049F0006139E8986DB380E291E0DF91CF910C943A
:104A000061390F931F93CF93DF9361E0809120036F
:104A10000E94900480912003823011F00C943E2E6D
:104A20009091FC018091FD012AE0929F800D11245C
:104A30008093E8030E943E0BC091E803C13009F463
:104A400086C0C33009F4E1C0C73009F4E5C0C835F9
:104A500009F4D1C2C13209F48EC0C03109F443C295
:104A6000CA3009F49FC1CB3009F4A5C1C93009F49B
:104A700004C1C43209F4A6C0C23209F482C0C630EF
:104A800009F407C1CC3309F40EC1C83009F44FC191
:104A9000CD3309F4DAC0C23409F454C0C53109F485
:104AA000F1C4C53009F457C1CC3009F4A7C1CD30E9
:104AB00009F4AEC1C23309F4E8C1C63309F4B3C185
:104AC000C73309F4D1C1C43109F49FC2C33209F418
:104AD000A5C2C83209F4A9C2C93209F4AFC2CA32A8
:104AE00009F4B5C2CB3209F4B7C3CE3309F4B9C067
:104AF000C53209F467C0CC3111F40C94922DCD313C
:104B000011F40C942A2ECD3211F40C949F2DCE3238
:104B100011F40C94B72DCF3209F4C5C5C33309F491
:104B2000CDC1CF3309F411C2C03309F4C6C6C230B7
:104B300009F45CC0C43309F4E3C1C53311F00C942B
:104B40002A2EECC180917103853031F45BC28091D3
:104B50007103853009F4D1C18091EE038093640321
:104B600080913C038093210380E1809371030E9434
:104B70003E0B0C94282E80917103853079F461E00E
:104B800005C080917103853049F460E08AE191E0CD
:104B90000E94613983E00E94580403C084E00E94AF
:104BA000CC008091EE038093640380913C0380935A
:104BB000210380E180937103DF91CF911F910F91C9
:104BC0000C943E0B80917103853031F60E94BD2418
:104BD000C093210380E1809371030E943E0B83E028
:104BE000DF91CF911F910F910C9458048091710324
:104BF0009CEF980F923018F08C3009F0ADCF809177
:104C0000EE03803509F0A8CF42C080917103845033
:104C1000823008F0A1CF71C180917103853009F015
:104C20009BCF8BE08093EE018093EF018093F001A6
:104C30008093F1018093F2018093F30146E050E00C
:104C400066E270E08EEE91E0CEC0809171038450F8
:104C5000823008F081CF8091EE03823509F07CCF5D
:104C60004CC1809171038450823008F075CF8091DF
:104C7000EE03823509F070CFC5C180917103853094
:104C800009F06ACF0E94BD2484E08093660382E02D
:104C900012C180917103853009F05ECF0E94BD245E
:104CA000C0936603F4CF80917103853009F054CF2F
:104CB0000E94BD2482E58093640362E588E090E071
:104CC0000E94613989E68093210369E689E090E0DA
:104CD0000E94613982E08093EA038093EB0384E0D1
:104CE0008093EC038093ED038091EA039091EB03B2
:104CF000A091EC03B091ED0380935602909357027C
:104D0000A0935802B093590280917203E4E08E9F01
:104D1000C001112444E050E06CE470E08A5A9D4FD9
:104D20000E94573960E080E00E94970353CF809142
:104D30007103853009F010CF0E94BD2481E5809376
:104D4000640361E588E090E00E94613984E080932B
:104D5000660364E013C080917103853009F0FCCED6
:104D60000E94BD2481E58093640361E588E090E0C2
:104D70000E94613986E08093660366E08AE090E0F5
:104D80000E94613988E68093210368E689E090E01B
:104D90000E94613980E18093710360E081E00E94AC
:104DA00097031BCF80917103853019F0833009F090
:104DB000D3CE8AE080C080917103853009F0CCCEDB
:104DC0008BE08093E8018093E9018093EA0180936E
:104DD000EB018093EC018093ED0146E050E06CE242
:104DE00070E088EE91E00E94573980913C038093F7
:104DF00021038091EE0380936403ECCE80917103D4
:104E0000853009F0A9CE81E08093E70361E008C016
:104E100080917103853009F09FCE1092E70360E026
:104E20008BE090E03DC080917103853009F094CE15
:104E30008091EE03813509F08FCE82E08093550298
:104E400062E085E190E00E94613980E18093710326
:104E50008091EE038093640380913C03809321034F
:104E60000E943E0B82E0BCCE80917103853009F038
:104E700073CE8091EE03813509F06ECE81E0809390
:104E8000550261E085E190E00BC0809171038530AF
:104E900009F062CE81E080936C0361E086E190E0EE
:104EA0000E94613980E1809371038091EE038093C9
:104EB000640380913C03809321038FCE8091710322
:104EC000853009F049CE10926C0360E086E190E0F5
:104ED0000E9461398091EE038093640380913C03CA
:104EE0008093210377CE80917103853009F034CE11
:104EF0008091EE03813509F02FCEC09321036DCE52
:104F0000809171038530D9F48091EE038D7F8035D7
:104F1000B1F481E08093D50161E00CC08091710310
:104F2000853069F48091EE038D7F803541F41092D5
:104F3000D50160E084E190E00E94613944C080E1E5
:104F4000809371030E943E0B4AC08091710384508C
:104F5000823008F041C08091EE038235E9F58BE0A4
:104F60008093EA038093EB038093EC038093ED033B
:104F70001092DF036091DF03623328F570E0CB010C
:104F8000880F991F880F991F8A5A9D4F0091EA0335
:104F90001091EB032091EC033091ED03FC010083B1
:104FA0001183228333836D5E7F4F660F771F660FF9
:104FB000771F44E050E00E9457398091DF038F5FF4
:104FC0008093DF03D7CF80E1809371030E943E0B73
:104FD00083E00E94580406C080E18093710384E05E
:104FE0000E94CC008091EE038093640380913C0387
:104FF0008093210343C680917103853009F0ACCDC5
:105000000E943E0BC0932103EACD8091710385304D
:1050100009F0A2CD0E94BD2482E7A6C5809171034C
:10502000853009F099CD8AE79FC58091710385305D
:1050300009F092CD0E943E0B83E796C580917103E3
:10504000853009F089CD0E943E0B84E78DC58091A3
:105050007103853009F0F7C0F89462E083E00E94A4
:10506000A00520917903922F9F77909379038091E7
:105070007A03382F3F70309329038295877080938D
:1050800028032F7020932B0392959F7090932A03EF
:10509000FFEF29E688E1F15020408040E1F700C0B1
:1050A000000008E213E0C0E0F8018081882309F4E1
:1050B00067C0D0E0F8018081D81708F0B4C088E05C
:1050C0000E94FE00C23079F1C33009F441C0C13002
:1050D000A9F041984098FFE72AE186E0F15020408E
:1050E0008040E1F700C00000419A409A9FEFE4E35E
:1050F000FCE09150E040F040E1F73EC04398429818
:105100002FE78AE196E0215080409040E1F700C00F
:105110000000439A429AEFEFF4E32CE0E150F040B4
:105120002040E1F729C0459844988FE79AE1E6E0EE
:1051300081509040E040E1F700C00000459A449A59
:10514000FFEF24E38CE0F15020408040E1F714C0F1
:10515000479846989FE7EAE1F6E09150E040F0403A
:10516000E1F700C00000479A469A2FEF84E39CE0E5
:10517000215080409040E1F700C00000DF5F9ACFEF
:10518000C23051F1C330D9F1C13099F04098FFE7F6
:105190002AE186E0F15020408040E1F700C00000A5
:1051A000409A9FEFE4E3FCE09150E040F040E1F7EB
:1051B00038C042982FE78AE196E021508040904025
:1051C000E1F700C00000429AEFEFF4E32CE0E15079
:1051D000F0402040E1F725C044988FE79AE1E6E0EF
:1051E00081509040E040E1F700C00000449AFFEF9A
:1051F00024E38CE0F15020408040E1F712C0469853
:105200009FE7EAE1F6E09150E040F040E1F700C0AE
:105210000000469A2FEF84E39CE0215080409040AC
:10522000E1F700C00000EFEFF9E628E1E150F040BF
:105230002040E1F700C00000CF5F0F5F1F4FC43078
:1052400009F032CF40C480913C03809321038091C8
:10525000EE038093640323C18091710383508330F4
:1052600008F015C1F89464E085E00E94A0058091E3
:105270007903982F9F70909329038295877080936C
:10528000280380917A038F7080932E0380917B0393
:10529000982F9F7090932B038295877080932A0399
:1052A00080917C03982F9F7090932D038295877037
:1052B00080932C038FEF99E6E8E181509040E04025
:1052C000E1F700C0000008E213E0C0E0F8018081CF
:1052D000882309F46DC0D0E0F8018081D81708F068
:1052E000C1C088E00E94FE00C33009F449C028F420
:1052F000C130E1F0C23079F104C0C530B9F0C63038
:1053000051F141984098FFE72AE186E0F1502040B2
:105310008040E1F700C00000419A409A9FEFE4E32B
:10532000FCE09150E040F040E1F73EC043984298E5
:105330002FE78AE196E0215080409040E1F700C0DD
:105340000000439A429AEFEFF4E32CE0E150F04082
:105350002040E1F729C0459844988FE79AE1E6E0BC
:1053600081509040E040E1F700C00000459A449A27
:10537000FFEF24E38CE0F15020408040E1F714C0BF
:10538000479846989FE7EAE1F6E09150E040F04008
:10539000E1F700C00000479A469A2FEF84E39CE0B3
:1053A000215080409040E1F700C00000DF5F94CFC3
:1053B000C33009F443C028F4C130D1F0C23059F1F0
:1053C00004C0C530A9F0C63031F14098FFE72AE1AA
:1053D00086E0F15020408040E1F700C00000409A94
:1053E0009FEFE4E3FCE09150E040F040E1F738C08B
:1053F00042982FE78AE196E0215080409040E1F703
:1054000000C00000429AEFEFF4E32CE0E150F040DE
:105410002040E1F725C044988FE79AE1E6E081500B
:105420009040E040E1F700C00000449AFFEF24E321
:105430008CE0F15020408040E1F712C046989FE791
:10544000EAE1F6E09150E040F040E1F700C00000F2
:10545000469A2FEF84E39CE0215080409040E1F792
:1054600000C00000EFEFF9E628E1E150F0402040F5
:10547000E1F700C00000CF5F0F5F1F4FC73009F09A
:1054800025CF21C3809171038350833070F08091C8
:10549000EE038093640380913C038093210380E1B9
:1054A000809371030E943E0B32C3F89462E089E05E
:1054B0000E94A00580917A03982F9F7090932903F2
:1054C000829587708093280380917903982F9F702D
:1054D00090932B038295877080932A0361E081E08B
:1054E0000E94A0058091790381FFD1CFE89BCFCFA7
:1054F0008FEF99E6E8E181509040E040E1F700C08D
:10550000000008E213E0C0E0F8018081882309F47C
:1055100067C0D0E0F8018081D81708F0B4C088E0F7
:105520000E94FE00C23079F1C33009F441C0C1309D
:10553000A9F041984098FFE72AE186E0F150204029
:105540008040E1F700C00000419A409A9FEFE4E3F9
:10555000FCE09150E040F040E1F73EC043984298B3
:105560002FE78AE196E0215080409040E1F700C0AB
:105570000000439A429AEFEFF4E32CE0E150F04050
:105580002040E1F729C0459844988FE79AE1E6E08A
:1055900081509040E040E1F700C00000459A449AF5
:1055A000FFEF24E38CE0F15020408040E1F714C08D
:1055B000479846989FE7EAE1F6E09150E040F040D6
:1055C000E1F700C00000479A469A2FEF84E39CE081
:1055D000215080409040E1F700C00000DF5F9ACF8B
:1055E000C23051F1C330D9F1C13099F04098FFE792
:1055F0002AE186E0F15020408040E1F700C0000041
:10560000409A9FEFE4E3FCE09150E040F040E1F786
:1056100038C042982FE78AE196E0215080409040C0
:10562000E1F700C00000429AEFEFF4E32CE0E15014
:10563000F0402040E1F725C044988FE79AE1E6E08A
:1056400081509040E040E1F700C00000449AFFEF35
:1056500024E38CE0F15020408040E1F712C04698EE
:105660009FE7EAE1F6E09150E040F040E1F700C04A
:105670000000469A2FEF84E39CE021508040904048
:10568000E1F700C00000EFEFF9E628E1E150F0405B
:105690002040E1F700C00000CF5F0F5F1F4FC43014
:1056A00009F032CF10C2F89489E191E00E944F399D
:1056B00080933A0290917103953009F012C28130C3
:1056C00009F00FC28BE191E00E944F39C82F8093FF
:1056D00045038CE191E00E944F39809353039C2F46
:1056E0009F7090932903C295C770C0932803982F89
:1056F0009F7090932B038295877080932A038FEF7E
:1057000099E6E8E181509040E040E1F700C00000F8
:1057100008E213E0C0E0F8018081882309F46AC040
:1057200088E00E94FE00D0E0F8018081D81708F0E0
:10573000B4C088E00E94FE00C23079F1C33009F4A1
:1057400041C0C130A9F041984098FFE72AE186E0C6
:10575000F15020408040E1F700C00000419A409A9B
:105760009FEFE4E3FCE09150E040F040E1F73EC001
:10577000439842982FE78AE196E02150804090407C
:10578000E1F700C00000439A429AEFEFF4E32CE007
:10579000E150F0402040E1F729C0459844988FE758
:1057A0009AE1E6E081509040E040E1F700C000005F
:1057B000459A449AFFEF24E38CE0F150204080406A
:1057C000E1F714C0479846989FE7EAE1F6E0915068
:1057D000E040F040E1F700C00000479A469A2FEF02
:1057E00084E39CE0215080409040E1F700C000003D
:1057F000DF5F9ACFC23051F1C330D9F1C13099F097
:105800004098FFE72AE186E0F15020408040E1F730
:1058100000C00000409A9FEFE4E3FCE09150E040BC
:10582000F040E1F738C042982FE78AE196E0215036
:1058300080409040E1F700C00000429AEFEFF4E3AF
:105840002CE0E150F0402040E1F725C044988FE77C
:105850009AE1E6E081509040E040E1F700C00000AE
:10586000449AFFEF24E38CE0F15020408040E1F7C0
:1058700012C046989FE7EAE1F6E09150E040F04020
:10588000E1F700C00000469A2FEF84E39CE021502E
:1058900080409040E1F700C00000EFEFF9E628E11A
:1058A000E150F0402040E1F700C00000CF5F0F5F03
:1058B0001F4FC43009F02FCF06C1F89489E191E061
:1058C0000E944F3980933A0290917103953009F00C
:1058D00008C1813009F005C18DE191E00E944F3986
:1058E000C82F80934F038EE191E00E944F3980933F
:1058F00075039C2F9F7090932903C295C770C09326
:105900002803982F9F7090932B0382958770809324
:105910002A03FFEF29E688E1F15020408040E1F7BB
:1059200000C0000008E213E0C0E0F8018081882395
:1059300009F467C0D0E0F8018081D81708F0B4C03E
:1059400088E00E94FE00C23079F1C33009F441C002
:10595000C130A9F041984098FFE72AE186E0F15074
:1059600020408040E1F700C00000419A409A9FEF3C
:10597000E4E3FCE09150E040F040E1F73EC04398A2
:1059800042982FE78AE196E0215080409040E1F76D
:1059900000C00000439A429AEFEFF4E32CE0E1509C
:1059A000F0402040E1F729C0459844988FE79AE1FC
:1059B000E6E081509040E040E1F700C00000459AE9
:1059C000449AFFEF24E38CE0F15020408040E1F75F
:1059D00014C0479846989FE7EAE1F6E09150E0400E
:1059E000F040E1F700C00000479A469A2FEF84E3A9
:1059F0009CE0215080409040E1F700C00000DF5F54
:105A00009ACFC23051F1C330D9F1C13099F04098EA
:105A1000FFE72AE186E0F15020408040E1F700C036
:105A20000000409A9FEFE4E3FCE09150E040F0403A
:105A3000E1F738C042982FE78AE196E02150804094
:105A40009040E1F700C00000429AEFEFF4E32CE051
:105A5000E150F0402040E1F725C044988FE79AE1FB
:105A6000E6E081509040E040E1F700C00000449A39
:105A7000FFEF24E38CE0F15020408040E1F712C0BA
:105A800046989FE7EAE1F6E09150E040F040E1F708
:105A900000C00000469A2FEF84E39CE02150804034
:105AA0009040E1F700C00000EFEFF9E628E1E15097
:105AB000F0402040E1F700C00000CF5F0F5F1F4FB4
:105AC000C43009F032CF80913C0380932103809150
:105AD000EE038093640380E1809371030E943E0B88
